:100000000C9446000C94A4000C94CF000C94FA00BD
:100010000C9425010C9450010C947B010C94A601C6
:100020000C94D1010C94FC010C9427020C94520204
:100030000C947D020C94A8020C94D3020C94FE0242
:100040000C9429030C9454030C947F030C94AA037E
:100050000C94D5030C9400040C942B040C945604BB
:100060000C9481040C94AC040C94D7040C940205F9
:100070000C942D050C9458050C9483050C94AE0536
:100080000C94D9050C9404060C942F0611241FBE61
:10009000CFEFD0E1DEBFCDBF11E0A0E0B1E0E6E7F9
:1000A000FAE100E00BBF02C007900D92AC35B1073A
:1000B000D9F721E0ACE5B1E001C01D92A639B20745
:1000C000E1F70E94E20C0C94390D883040F428B31B
:1000D0002F7130E2839FC0011124822B88BB0895C9
:1000E00087B3806E87BB089587B3807F876087BBA7
:1000F00083E58DB981E08EB908958FB9779BFECFE6
:100100008FB108951092980081E180939900EAE9F7
:10011000F0E0808188618083EDE9F0E08081866095
:100120008083089590919B0095FFFCCF80939C0065
:10013000089580919B0087FFFCCF80919C000895DB
:10014000089508950C94FB091F920F920FB60F9219
:1001500011240BB60F922F933F934F935F936F939E
:100160007F938F939F93AF93BF93EF93FF930E94DF
:10017000A200FF91EF91BF91AF919F918F917F91DD
:100180006F915F914F913F912F910F900BBE0F9008
:100190000FBE0F901F90189508950C94040A1F929B
:1001A0000F920FB60F9211240BB60F922F933F931D
:1001B0004F935F936F937F938F939F93AF93BF936F
:1001C000EF93FF930E94CD00FF91EF91BF91AF910C
:1001D0009F918F917F916F915F914F913F912F915F
:1001E0000F900BBE0F900FBE0F901F9018950895A3
:1001F0000C940D0A1F920F920FB60F9211240BB69A
:100200000F922F933F934F935F936F937F938F93AF
:100210009F93AF93BF93EF93FF930E94F800FF91DA
:10022000EF91BF91AF919F918F917F916F915F916E
:100230004F913F912F910F900BBE0F900FBE0F90DB
:100240001F90189508950C94160A1F920F920FB6DE
:100250000F9211240BB60F922F933F934F935F93FE
:100260006F937F938F939F93AF93BF93EF93FF937E
:100270000E942301FF91EF91BF91AF919F918F91C8
:100280007F916F915F914F913F912F910F900BBE96
:100290000F900FBE0F901F90189508950C941F0A91
:1002A0001F920F920FB60F9211240BB60F922F933D
:1002B0003F934F935F936F937F938F939F93AF93EE
:1002C000BF93EF93FF930E944E01FF91EF91BF9177
:1002D000AF919F918F917F916F915F914F913F91DE
:1002E0002F910F900BBE0F900FBE0F901F9018957F
:1002F00008950C94280A1F920F920FB60F921124A2
:100300000BB60F922F933F934F935F936F937F930F
:100310008F939F93AF93BF93EF93FF930E947901C5
:10032000FF91EF91BF91AF919F918F917F916F91CD
:100330005F914F913F912F910F900BBE0F900FBE89
:100340000F901F90189508950C94310A1F920F92E8
:100350000FB60F9211240BB60F922F933F934F932A
:100360005F936F937F938F939F93AF93BF93EF931D
:10037000FF930E94A401FF91EF91BF91AF919F91D4
:100380008F917F916F915F914F913F912F910F903E
:100390000BBE0F900FBE0F901F90189508950C94F0
:1003A0003A0A1F920F920FB60F9211240BB60F92BA
:1003B0002F933F934F935F936F937F938F939F936D
:1003C000AF93BF93EF93FF930E94CF01FF91EF9103
:1003D000BF91AF919F918F917F916F915F914F915D
:1003E0003F912F910F900BBE0F900FBE0F901F905B
:1003F000189508950C94DE091F920F920FB60F9274
:1004000011240BB60F922F933F934F935F936F93EB
:100410007F938F939F93AF93BF93EF93FF930E942C
:10042000FA01FF91EF91BF91AF919F918F917F91D1
:100430006F915F914F913F912F910F900BBE0F9055
:100440000FBE0F901F90189508950C94D5091F9218
:100450000F920FB60F9211240BB60F922F933F936A
:100460004F935F936F937F938F939F93AF93BF93BC
:10047000EF93FF930E942502FF91EF91BF91AF91FF
:100480009F918F917F916F915F914F913F912F91AC
:100490000F900BBE0F900FBE0F901F9018950895F0
:1004A0000C944F021F920F920FB60F9211240BB6AD
:1004B0000F922F933F934F935F936F937F938F93FD
:1004C0009F93AF93BF93EF93FF930E945002FF91CE
:1004D000EF91BF91AF919F918F917F916F915F91BC
:1004E0004F913F912F910F900BBE0F900FBE0F9029
:1004F0001F90189508950C94CA091F920F920FB679
:100500000F9211240BB60F922F933F934F935F934B
:100510006F937F938F939F93AF93BF93EF93FF93CB
:100520000E947B02FF91EF91BF91AF919F918F91BC
:100530007F916F915F914F913F912F910F900BBEE3
:100540000F900FBE0F901F90189508950C94D3092B
:100550001F920F920FB60F9211240BB60F922F938A
:100560003F934F935F936F937F938F939F93AF933B
:10057000BF93EF93FF930E94A602FF91EF91BF916B
:10058000AF919F918F917F916F915F914F913F912B
:100590002F910F900BBE0F900FBE0F901F901895CC
:1005A00008950C94C1091F920F920FB60F92112457
:1005B0000BB60F922F933F934F935F936F937F935D
:1005C0008F939F93AF93BF93EF93FF930E94D102BA
:1005D000FF91EF91BF91AF919F918F917F916F911B
:1005E0005F914F913F912F910F900BBE0F900FBED7
:1005F0000F901F90189508950C94B8091F920F92B0
:100600000FB60F9211240BB60F922F933F934F9377
:100610005F936F937F938F939F93AF93BF93EF936A
:10062000FF930E94FC02FF91EF91BF91AF919F91C8
:100630008F917F916F915F914F913F912F910F908B
:100640000BBE0F900FBE0F901F90189508950C943D
:10065000AF091F920F920FB60F9211240BB60F9293
:100660002F933F934F935F936F937F938F939F93BA
:10067000AF93BF93EF93FF930E942703FF91EF91F6
:10068000BF91AF919F918F917F916F915F914F91AA
:100690003F912F910F900BBE0F900FBE0F901F90A8
:1006A000189508950C944C0A1F920F920FB60F9252
:1006B00011240BB60F922F933F934F935F936F9339
:1006C0007F938F939F93AF93BF93EF93FF930E947A
:1006D0005203FF91EF91BF91AF919F918F917F91C5
:1006E0006F915F914F913F912F910F900BBE0F90A3
:1006F0000FBE0F901F90189508950C946C0A1F92CE
:100700000F920FB60F9211240BB60F922F933F93B7
:100710004F935F936F937F938F939F93AF93BF9309
:10072000EF93FF930E947D03FF91EF91BF91AF91F3
:100730009F918F917F916F915F914F913F912F91F9
:100740000F900BBE0F900FBE0F901F90189508953D
:100750000C94A7031F920F920FB60F9211240BB6A1
:100760000F922F933F934F935F936F937F938F934A
:100770009F93AF93BF93EF93FF930E94A803FF91C2
:10078000EF91BF91AF919F918F917F916F915F9109
:100790004F913F912F910F900BBE0F900FBE0F9076
:1007A0001F90189508950C945C0A1F920F920FB633
:1007B0000F9211240BB60F922F933F934F935F9399
:1007C0006F937F938F939F93AF93BF93EF93FF9319
:1007D0000E94D303FF91EF91BF91AF919F918F91B1
:1007E0007F916F915F914F913F912F910F900BBE31
:1007F0000F900FBE0F901F90189508950C949C0AAF
:100800001F920F920FB60F9211240BB60F922F93D7
:100810003F934F935F936F937F938F939F93AF9388
:10082000BF93EF93FF930E94FE03FF91EF91BF915F
:10083000AF919F918F917F916F915F914F913F9178
:100840002F910F900BBE0F900FBE0F901F90189519
:1008500008950C9428041F920F920FB60F92112442
:100860000BB60F922F933F934F935F936F937F93AA
:100870008F939F93AF93BF93EF93FF930E942904AD
:10088000FF91EF91BF91AF919F918F917F916F9168
:100890005F914F913F912F910F900BBE0F900FBE24
:1008A0000F901F90189508950C9453041F920F9267
:1008B0000FB60F9211240BB60F922F933F934F93C5
:1008C0005F936F937F938F939F93AF93BF93EF93B8
:1008D000FF930E945404FF91EF91BF91AF919F91BC
:1008E0008F917F916F915F914F913F912F910F90D9
:1008F0000BBE0F900FBE0F901F90189508950C948B
:10090000D4091F920F920FB60F9211240BB60F92BB
:100910002F933F934F935F936F937F938F939F9307
:10092000AF93BF93EF93FF930E947F04FF91EF91EA
:10093000BF91AF919F918F917F916F915F914F91F7
:100940003F912F910F900BBE0F900FBE0F901F90F5
:10095000189508950C94A9041F920F920FB60F9248
:1009600011240BB60F922F933F934F935F936F9386
:100970007F938F939F93AF93BF93EF93FF930E94C7
:10098000AA04FF91EF91BF91AF919F918F917F91B9
:100990006F915F914F913F912F910F900BBE0F90F0
:1009A0000FBE0F901F90189508950C94F0091F9298
:1009B0000F920FB60F9211240BB60F922F933F9305
:1009C0004F935F936F937F938F939F93AF93BF9357
:1009D000EF93FF930E94D504FF91EF91BF91AF91E8
:1009E0009F918F917F916F915F914F913F912F9147
:1009F0000F900BBE0F900FBE0F901F90189508958B
:100A00000C94F9091F920F920FB60F9211240BB696
:100A10000F922F933F934F935F936F937F938F9397
:100A20009F93AF93BF93EF93FF930E940005FF91B5
:100A3000EF91BF91AF919F918F917F916F915F9156
:100A40004F913F912F910F900BBE0F900FBE0F90C3
:100A50001F90189508950C94FA091F920F920FB6E3
:100A60000F9211240BB60F922F933F934F935F93E6
:100A70006F937F938F939F93AF93BF93EF93FF9366
:100A80000E942B05FF91EF91BF91AF919F918F91A4
:100A90007F916F915F914F913F912F910F900BBE7E
:100AA0000F900FBE0F901F90189508950C94E709B2
:100AB0001F920F920FB60F9211240BB60F922F9325
:100AC0003F934F935F936F937F938F939F93AF93D6
:100AD000BF93EF93FF930E945605FF91EF91BF9153
:100AE000AF919F918F917F916F915F914F913F91C6
:100AF0002F910F900BBE0F900FBE0F901F90189567
:100B000008950C948C0A1F920F920FB60F92112425
:100B10000BB60F922F933F934F935F936F937F93F7
:100B20008F939F93AF93BF93EF93FF930E948105A1
:100B3000FF91EF91BF91AF919F918F917F916F91B5
:100B40005F914F913F912F910F900BBE0F900FBE71
:100B50000F901F90189508950C94AB051F920F925B
:100B60000FB60F9211240BB60F922F933F934F9312
:100B70005F936F937F938F939F93AF93BF93EF9305
:100B8000FF930E94AC05FF91EF91BF91AF919F91B0
:100B90008F917F916F915F914F913F912F910F9026
:100BA0000BBE0F900FBE0F901F90189508950C94D8
:100BB0007C0A1F920F920FB60F9211240BB60F9260
:100BC0002F933F934F935F936F937F938F939F9355
:100BD000AF93BF93EF93FF930E94D705FF91EF91DF
:100BE000BF91AF919F918F917F916F915F914F9145
:100BF0003F912F910F900BBE0F900FBE0F901F9043
:100C0000189508950C94430A1F920F920FB60F92F5
:100C100011240BB60F922F933F934F935F936F93D3
:100C20007F938F939F93AF93BF93EF93FF930E9414
:100C30000206FF91EF91BF91AF919F918F917F91AC
:100C40006F915F914F913F912F910F900BBE0F903D
:100C50000FBE0F901F90189508950C942C061F92AC
:100C60000F920FB60F9211240BB60F922F933F9352
:100C70004F935F936F937F938F939F93AF93BF93A4
:100C8000EF93FF930E942D06FF91EF91BF91AF91DB
:100C90009F918F917F916F915F914F913F912F9194
:100CA0000F900BBE0F900FBE0F901F90189587B33B
:100CB000887F87BBBB9A80E48DB96F9A789408953A
:100CC0008FB908958FB108950E946500E2E6F0E0C3
:100CD00080818061808380E00C9465000E946500C3
:100CE000E2E6F0E080818F7E80830895FF920F938B
:100CF0001F93CF93DF93CDB7DEB728970FB6F89445
:100D0000DEBF0FBECDBF182FF92E062F080FAE0184
:100D10004F5F5F4F62E370E080E090E00E94260C3E
:100D2000779B09C0E12FFF2D8FB181930E17A1F0A2
:100D30001E2FFF2EECCF89819A81AB81BC818D83E0
:100D40009E83AF83B887BC01CD010E94500C8823DD
:100D500039F381E080931F0128960FB6F894DEBF27
:100D60000FBECDBFDF91CF911F910F91FF900895DE
:100D7000CF93DF93CDB7DEB728970FB6F894DEBFD9
:100D80000FBECDBFAE014F5F5F4F62E370E080E00A
:100D900090E00E94260C779B02C08FB112C089811F
:100DA0009A81AB81BC818D839E83AF83B887BC0160
:100DB000CD010E94500C882371F381E080931F01C4
:100DC00080E028960FB6F894DEBF0FBECDBFDF914E
:100DD000CF910895FF920F931F93CF93DF93CDB7D9
:100DE000DEB728970FB6F894DEBF0FBECDBF8C01DB
:100DF000F62EF80EF80180810F5F1F4F8FB9AE01FC
:100E00004F5F5F4F62E370E080E090E00E94260C4D
:100E1000779B03C0F012EECF11C089819A81AB811C
:100E2000BC818D839E83AF83B887BC01CD010E94B6
:100E3000500C882369F381E080931F0128960FB638
:100E4000F894DEBF0FBECDBFDF91CF911F910F9100
:100E5000FF900895CF93DF93CDB7DEB728970FB6F5
:100E6000F894DEBF0FBECDBF8FB9AE014F5F5F4FAD
:100E700062E370E080E090E00E94260C779911C058
:100E800089819A81AB81BC818D839E83AF83B88732
:100E9000BC01CD010E94500C882381F381E0809336
:100EA0001F0128960FB6F894DEBF0FBECDBFDF91AD
:100EB000CF910895DF92EF92FF920F931F93CF93FC
:100EC000DF93CDB7DEB728970FB6F894DEBF0FBE1D
:100ED000CDBF7B018C01D42ED80EF80180810F5F2D
:100EE0001F4F8FB9AE014F5F5F4F62E370E080E04C
:100EF00090E00E94260C779B07C0F7018FB1819389
:100F0000D01699F07F01E9CF89819A81AB81BC81AC
:100F10008D839E83AF83B887BC01CD010E94500CA6
:100F2000882349F381E080931F0128960FB6F89437
:100F3000DEBF0FBECDBFDF91CF911F910F91FF900C
:100F4000EF90DF900895CF93DF93CDB7DEB728976A
:100F50000FB6F894DEBF0FBECDBF8FB9AE014F5FA5
:100F60005F4F62E370E080E090E00E94260C779B88
:100F700002C08FB112C089819A81AB81BC818D83FF
:100F80009E83AF83B887BC01CD010E94500C88239B
:100F900071F381E080931F0180E028960FB6F894EA
:100FA000DEBF0FBECDBFDF91CF9108950E947000CC
:100FB00087B3876087BBBB98E1E6F0E08081806102
:100FC00080838DB183658DB908951092900081E181
:100FD00089B98AB188618AB9E5E9F0E080818660E3
:100FE00080838AB1806C8AB908959B015D9BFECF96
:100FF0008CB910925D0190E080E08217930709F4AC
:10100000089500000196F9CF9A01FC01680F792F2D
:10101000711DE617F70719F410925D0108955D9BA5
:10102000FECF81918CB990E080E08217930789F31D
:1010300000000196FACF1092980081E18093990008
:10104000EAE9F0E0808188618083ADE9B0E08C91CD
:1010500086608C938081806C808308959B01909141
:101060009B0095FFFCCF80939C0010925C0190E068
:1010700080E08217930709F4089500000196F9CFE4
:101080009A01FC01680F792F711DE617F70719F413
:1010900010925C01089580919B0085FFFCCF8191A7
:1010A00080939C0090E080E08217930771F300002A
:1010B0000196FACFAF92BF92CF92DF92EF92FF925A
:1010C0000F931F93CF93DF93CDB7DEB728970FB65B
:1010D000F894DEBF0FBECDBF7C015A0110E000E0E6
:1010E000C62ED12C0C151D051CF010925D012DC0D3
:1010F000AE014F5F5F4F62E370E080E090E00E94DE
:10110000260C5F9B0DC08CB1F701E00FF11F8083AF
:1011100090E080E08A159B0549F50F5F1F4FE2CFF5
:1011200089819A81AB81BC818D839E83AF83B8878F
:10113000BC01CD010E94500C882319F381E08093FB
:101140005D010E0D1F1DD8011C9228960FB6F89454
:10115000DEBF0FBECDBFDF91CF911F910F91FF90EA
:10116000EF90DF90CF90BF90AF9008950000019670
:10117000D1CFAF92BF92CF92DF92EF92FF920F93B7
:101180001F93CF93DF93CDB7DEB728970FB6F894B0
:10119000DEBF0FBECDBF7C015A0110E000E0C62EBD
:1011A000D12C0C151D051CF010925C0130C0AE0155
:1011B0004F5F5F4F62E370E080E090E00E94260C9A
:1011C00080919B0087FF0EC080919C00F701E00F8B
:1011D000F11F808390E080E08A159B0549F50F5F41
:1011E0001F4FDFCF89819A81AB81BC818D839E8324
:1011F000AF83B887BC01CD010E94500C882301F356
:1012000081E080935C010E0D1F1DD8011C92289671
:101210000FB6F894DEBF0FBECDBFDF91CF911F9107
:101220000F91FF90EF90DF90CF90BF90AF90089517
:1012300000000196D1CFEF92FF920F931F93CF93AF
:10124000DF93CDB7DEB728970FB6F894DEBF0FBE99
:10125000CDBF8C017B01AE014F5F5F4F62E370E059
:1012600080E090E00E94260C5F9B0DC08CB1F801DD
:10127000808310925D0190E080E08E159F05B1F0B3
:1012800000000196FACF89819A81AB81BC818D8360
:101290009E83AF83B887BC01CD010E94500C882388
:1012A00019F381E080935D01D8011C9228960FB656
:1012B000F894DEBF0FBECDBFDF91CF911F910F918C
:1012C000FF90EF900895EF92FF920F931F93CF93AB
:1012D000DF93CDB7DEB728970FB6F894DEBF0FBE09
:1012E000CDBF8C017B01AE014F5F5F4F62E370E0C9
:1012F00080E090E00E94260C80919B0087FF0EC04A
:1013000080919C00F801808310925C0190E080E065
:101310008E159F05B1F000000196FACF89819A8160
:10132000AB81BC818D839E83AF83B887BC01CD0127
:101330000E94500C882301F381E080935C01D80166
:101340001C9228960FB6F894DEBF0FBECDBFDF917A
:10135000CF911F910F91FF90EF9008950895809184
:10136000840190918501009711F00C94CA0A0895A8
:1013700080916A0190916B01009711F00C94390BE8
:1013800008958091860190918701009711F00C9447
:10139000CA0A089580916C0190916D01009711F037
:1013A0000C94390B089508950895809188019091C7
:1013B0008901009711F00C94CA0A089580916E017A
:1013C00090916F01009711F00C94390B0895809162
:1013D0008A0190918B01009711F00C94CA0A08952C
:1013E0008091700190917101009711F00C94390B6C
:1013F0000895089508958091740190917501009762
:1014000011F00C94140B089580917601909177015E
:10141000009711F00C94140B08958091780190912D
:101420007901009711F00C94140B089580917A01C2
:1014300090917B01009711F00C94140B089580910A
:101440007C0190917D01009711F00C94140B08958C
:1014500080917E0190917F01009711F00C94140B04
:1014600008958091800190918101009711F00C9472
:10147000140B08958091820190918301009711F0DF
:101480000C94140B089580915E0190915F01009778
:1014900011F00C94A50A0895E0910201F091030166
:1014A000309709F00995809172019091730100972E
:1014B00011F00C94EF0A0895E0913201F09133019C
:1014C000309709F009958091660190916701009726
:1014D00011F00C94830B0895E0913401F0913501E3
:1014E000309709F00995809162019091630100970E
:1014F00011F00C94A80B0895E0912201F0912301C2
:10150000309709F0099580916801909169010097E1
:1015100011F00C94830B0895E0912401F0912501C2
:10152000309709F0099580916401909165010097C9
:1015300011F00C94A80B08958091600190916101C5
:10154000009711F00C945E0B08950F931F93CF93A7
:10155000DF93EC0110E005E0892BC1F4DF91CF911E
:101560001F910F910895DE01019FA00DB11D11245F
:1015700018968C911897882341F01996ED91FC915B
:101580001A971B968D919C9109951F5F8F81181753
:1015900050F3E4CF0F931F93CF93DF93EC0110E050
:1015A00005E0892BC1F4DF91CF911F910F91089530
:1015B000DE01019FA00DB11D112456968C91569706
:1015C000882341F05796ED91FC91589759968D914B
:1015D0009C9109951F5F8D89181750F3E4CF0F93E5
:1015E0001F93CF93DF93EC0110E005E0892BC1F44A
:1015F000DF91CF911F910F910895DE01019FA00D02
:10160000B11D11241B968C911B97882341F01C96C9
:10161000ED91FC911D971E968D919C9109951F5FF0
:101620008A85181750F3E4CF0F931F93CF93DF935E
:10163000EC0110E005E0892BC1F4DF91CF911F91FF
:101640000F910895DE01019FA00DB11D1124169682
:101650008C911697882341F01796ED91FC9118977D
:1016600019968D919C9109951F5F8D81181750F3E4
:10167000E4CF0F931F93CF93DF93EC0110E005E0CD
:10168000892BC1F4DF91CF911F910F910895DE0155
:10169000019FA00DB11D11241F968C911F978823C7
:1016A00041F05096ED91FC91519752968D919C91FD
:1016B00009951F5F8E85181750F3E4CF0F931F9382
:1016C000CF93DF93EC0110E005E0892BC1F4DF91AB
:1016D000CF911F910F910895DE01019FA00DB11DC3
:1016E000112453968C915397882341F05496ED9191
:1016F000FC91559756968D919C9109951F5F8A890B
:10170000181750F3E4CF0F931F93CF93DF93EC019F
:1017100010E005E0892BC1F4DF91CF911F910F916B
:101720000895DE01019FA00DB11D112456968C91E4
:101730005697882341F05796ED91FC91589759960A
:101740008D919C9109951F5F8C89181750F3E4CFF8
:101750000F931F93CF93DF93EC0110E005E0892BEB
:10176000D9F4DF91CF911F910F910895CE01019F80
:10177000800D911D1124FC01E658FF4F208122238A
:1017800051F031960190F081E02D83589F4FDC019C
:101790008D919C9109951F5F8D89181738F3E1CFC2
:1017A00010928C0110928D0110928E0110928F0177
:1017B0000895CF93DF9300D000D0CDB7DEB78091EE
:1017C0008C0190918D01A0918E01B0918F01BC018F
:1017D000CD010F900F900F900F90DF91CF91089552
:1017E000CF92DF92EF92FF92CF93DF9300D000D0A1
:1017F00000D0CDB7DEB769837A838B839C835E8309
:101800004D83C0908C01D0908D01E0908E01F090BE
:101810008F0128EE33E040E050E00E94EB0CC20E56
:10182000D31EE41EF51EED81FE81C082D182E282CC
:10183000F38226960FB6F894DEBF0FBECDBFDF91C0
:10184000CF91FF90EF90DF90CF9008950F931F936B
:10185000CF93DF9300D000D0CDB7DEB769837A8312
:101860008B839C8380918C0190918D01A0918E013E
:10187000B0918F0109811A812B813C81800F911FCA
:10188000A21FB31FFA0180839183A283B3830F90B9
:101890000F900F900F90DF91CF911F910F910895AE
:1018A0000F931F93CF93DF9300D000D0CDB7DEB757
:1018B00069837A838B839C8340918C0150918D0145
:1018C00060918E0170918F0181E009811A812B81D5
:1018D0003C81041715072607370708F080E00F90B2
:1018E0000F900F900F90DF91CF911F910F9108955E
:1018F000CF93DF9300D000D0CDB7DEB769837A8372
:101900008B839C8380918C0190918D01A0918E019D
:10191000B0918F0129813A814B815C81820F931FA5
:10192000A41FB51F40918C0150918D0160918E01D3
:1019300070918F01481759076A077B0798F30F903A
:101940000F900F900F90DF91CF91089580918C01AF
:1019500090918D01A0918E01B0918F010196A11DF2
:10196000B11D80938C0190938D01A0938E01B09353
:101970008F010895CF93C82F8A3019F48DE00E940B
:10198000BA0C5D9BFECFCCB990E080E0CF9108957A
:101990005F9BFECF8CB190E008951092900081E1A2
:1019A00089B98AB188618AB9E5E9F0E08081866009
:1019B0008083E0E9F1E080E491E093838283918386
:1019C000808308950E94CD0C8EE491E00E940D0D5D
:1019D00090E080E00895A1E21A2EAA1BBB1BFD0136
:1019E0000DC0AA1FBB1FEE1FFF1FA217B307E407FE
:1019F000F50720F0A21BB30BE40BF50B661F771F56
:101A0000881F991F1A9469F7609570958095909535
:101A10009B01AC01BD01CF0108950F931F93CF939C
:101A2000DF93E0919201F0919301238110E000E0B7
:101A300021FD0EC00FEF1FEFC801DF91CF911F9165
:101A40000F9108950995892B11F00FEF1FEFCE012B
:101A5000EC0189916091920170919301DB011896DC
:101A6000ED91FC918111EECF8AE00995892B21F34C
:061A7000E1CFF894FFCF66
:101A76005706000060066206000000D607A3075A54
:101A86000700002A07EA06B80676066E0664060010
:101A96001B08000000002E0840086309B9085C0115
:101AA600E50700000000F50704081B095A085D0158
:101AB6000000000300000000BA0CC80C00004865D6
:0C1AC6006C6C6F20576F726C6421210063
:00000001FF
